:020000040800F2
:1000000000000220B9020008C1020008C502000871
:1000100035030008390300088103000800000000D0
:10002000000000000000000000000000C9030008FC
:10003000CD03000800000000D1030008A517000848
:10004000E5030008E5030008E5030008E5030008F0
:10005000E5030008E5030008E5030008D51E0008D5
:10006000411F0008AD1F0008B5200008E503000887
:10007000E5030008E5030008E5030008E5030008C0
:10008000E5030008E5030008E5030008E5030008B0
:10009000E5030008E5030008E5030008E5030008A0
:1000A000E5030008E5030008E5030008E503000890
:1000B000E5030008E5030008E5030008E503000880
:1000C000E5030008E5030008E5030008E503000870
:1000D000E5030008E5030008E5030008E503000860
:1000E000E5030008E5030008E5030008E503000850
:1000F000E5030008E5030008E5030008E503000840
:10010000E5030008E5030008E5030008E50300082F
:10011000E5030008E5030008E5030008E50300081F
:10012000E5030008E5030008E5030008E50300080F
:10013000E5030008E5030008E5030008E5030008FF
:10014000E5030008E5030008E5030008E5030008EF
:10015000E5030008E5030008E5030008E5030008DF
:10016000E5030008E5030008E5030008E5030008CF
:10017000E5030008E5030008E503000800000000AF
:10018000E5030008E503000800B583B001F0A8F816
:10019000384B394A1360394A136039490CE00A6810
:1001A0004B6801F10C04886803E01168196004339E
:1001B00004329842F9D82146324B9942EFD32E4B64
:1001C0001A68314B9A4204D12C4B1A682F4B9A4231
:1001D00000D0FEE7274B2E4A13602E4A13602E4BA9
:1001E0000AE0194651F8082B5B6802E00020106015
:1001F00004329342FAD80B46284A9342F1D3244B57
:100200001B6813B9234B1B6803B1FEE701F002FB27
:1002100001A8694600F0EAFF214B224DED1AAD100E
:10022000002404E01E4B53F8243098470134A542C3
:10023000F8DC1D4B1D4DED1AAD10002404E01A4BE7
:1002400053F8243098470134A542F8DC019800990E
:1002500001F03AFF0546164B164CE41AA41004E0D0
:10026000013C134B53F824309847002CF8DC284607
:1002700000F08EFFBABADECA000000209C02002007
:10028000E8030008000400087856341232547698C7
:10029000A0020020A0340020000400081004000880
:1002A00010040008100400081004000810040008DE
:1002B000100400081004000808B5FFF765FF00BF30
:1002C00000BEFEE71EF0040F0CBFEFF30880EFF353
:1002D00009807146404A10472DE9F04383B0054636
:1002E0008946124C676BA66BD4F82880236B13F0F9
:1002F000020F0BD0E36A002B08DA4BF6AB6101F07A
:100300006BF818B14FF00042E2620CE0084800F0D0
:1003100081FFCDF80090284641463A46334600F02A
:10032000E3FF00BEFEE703B0BDE8F08300ED00E0B0
:10033000C02B000800BEFEE71EF0040F0CBFEFF359
:100340000880EFF309807146244A10472DE9F041F7
:1003500082B007468846084C666BA56BA46A0748BE
:1003600000F058FFCDF800803846214632462B4633
:1003700000F0BAFF00BEFEE700ED00E0D02B000861
:100380001EF0040F0CBFEFF30880EFF309807146F5
:10039000134A10472DE9F04182B007468846084CC1
:1003A000666BA56BA46A074800F034FFCDF80080A7
:1003B0003846214632462B4600F096FF00BEFEE747
:1003C00000ED00E0DC2B000800BEFEE700BEFEE70B
:1003D00000BEFEE770470000D90200084D03000888
:0803E0009503000800BEFEE7D2
:1003E800702C000800000020A0020020702C0008DB
:1003F8000000001000000010A0020020A43400201B
:080408000000001000000010CC
:10041000704700BF10B5044600F09EFE064BA3FBDC
:100420000020800900F092F84FF0FF3021460022B2
:1004300000F04AF8002010BDD34D621008B50B4BF8
:100440001A6842F400721A601A6842F480621A60F4
:100450001A6842F480721A60032000F017F80F2027
:10046000FFF7D8FFFFF7D4FF002008BD003C024093
:10047000014B1868704700BFA4020020024B1A68A5
:1004800022F002021A60704710E000E010B5044646
:10049000C31E042B03D90A48A42100F0AFFE04F0C8
:1004A0000704084BD86820F4E0600004000C40EA20
:1004B000042040F0BF6040F40030D86010BD00BFA1
:1004C0005029000800ED00E070B506460D461446C0
:1004D0000F2A03D91A48BC2100F090FE0F2D03D932
:1004E0001748BD2100F08AFE164BDB68C3F30223D8
:1004F000C3F10701042928BF04211A1D062A01D9C6
:10050000033B00E00023012202FA01F101390D4012
:100510009D4002FA03F3013B1C402C43002E06DAF7
:1005200006F00F062401E4B2074B9C5570BD240170
:10053000E4B206F1604000F5614080F8004370BD10
:100540005029000800ED00E014ED00E00138B0F1A2
:10055000807F0AD2064B5860F021064A82F82310A9
:100560000020986007221A6070470120704700BF82
:1005700010E000E000ED00E02DE9F84F07460D46E1
:100580009E4B984223D003F5806398421FD003F519
:10059000806398421BD003F58063984217D003F51F
:1005A0008063984213D003F5806398420FD003F51F
:1005B000806398420BD003F58063984207D003F51F
:1005C0008063984203D08E48C52100F017FE2B8827
:1005D0001BB98B48C62100F011FE6B68012B22D994
:1005E000112B20D0022B1ED0122B1CD0854A9342F7
:1005F00019D002F58012934215D002F58012934271
:1006000011D0A2F5F81293420DD002F58012934258
:1006100009D002F58012934205D0032B03D078480D
:10062000C72100F0EBFDAB68022B03D97448C82149
:1006300000F0E4FD002422E1A1460126A6402B683B
:1006400003EA0608B04540F019816B68022B01D01F
:10065000122B4BD12B69C3B3092B36D0ABB3A3B349
:100660009BB393B3012B30D02FD0022B2DD02CD0A5
:100670002BD0032B29D0042B27D026D025D0052B17
:1006800023D022D0092B20D0062B1ED0092B1CD022
:10069000072B1AD019D018D0082B16D015D014D08B
:1006A000092B12D011D00A2B0FD00ED00B2B0CD04F
:1006B0000C2B0AD009D00D2B07D00C2B05D00F2BFB
:1006C00003D04F48D92100F099FDE308083357F8CB
:1006D000231004F0070292000F20904021EA00004E
:1006E000296901FA02F2024347F823203A684FEAE7
:1006F000440A4FF0030B0BFA0AFB6FEA0B0B0BEAF1
:1007000002026B6803F0030303FA0AF313433B602E
:100710006B685A1E012A03D9112B01D0122B19D153
:10072000EB68032B03D93648EC2100F067FDBA686B
:100730000BEA0202EB6803FA0AF31343BB607B681F
:1007400023EA06066B68C3F3001303FA09F949EAC2
:1007500006067E60FB680BEA030BAB6803FA0AF33C
:1007600043EA0B03FB606B6813F0805F00F0868048
:10077000254B5A6C42F480425A64A308991C234AC0
:1007800052F8210004F0030292000F21914020EA68
:1007900001011A4887423BD000F5806087422BD088
:1007A00000F58060874225D000F5806087421FD029
:1007B00000F58060874219D000F58060874213D031
:1007C00000F5806087420DD000F58060874207D039
:1007D00000F58060874201D108201AE0092018E066
:1007E000072016E0062014E0052012E0042010E0A7
:1007F00003200EE002200CE001200AE0000002408D
:10080000842900080000111000380240003801401F
:10081000002000FA02F20A4302331B4941F8232068
:100820001A4B1A686FEA080303EA0201686810F4B9
:10083000803F01D048EA0201144A1160526803EA7D
:100840000201686810F4003F01D048EA02010F4A33
:100850005160926803EA0201686810F4801F01D0B9
:1008600048EA0201094A9160D2681340696811F4AC
:10087000001F01D048EA0203044AD36001340F2C60
:100880007FF6DAAEBDE8F88F00380140003C014049
:1008900070B5054614460E4621B909484FF4D67185
:1008A00000F0ACFC012C04D9054840F2AD1100F079
:1008B000A5FC0CB1AE6170BD3604AE6170BD00BF69
:1008C00084290008704700BF08B5044B5B690342E8
:1008D00003D0024B5861FFF7F5FF08BD003C014013
:1008E00038B5044603680F2B04D9B04840F21B11F9
:1008F00000F084FC236813F0010F5FD06368012BC4
:1009000006D9052B04D0A9484FF4907100F076FC6D
:10091000A74B9B6803F00C03042B0AD0A44B9B68E5
:1009200003F00C03082B0DD1A14B5B6813F4800F6F
:1009300008D09F4B1B6813F4003F3FD06368002B27
:100940003CD1F9E100229B4B1A70FFF791FD05465F
:1009500007E0FFF78DFD401B41F28833984200F21B
:10096000ED81934B1B6813F4003FF2D12279914B38
:100970001A7063688BB1FFF77BFD054607E0FFF750
:1009800077FD401B41F28833984200F2D981884BB1
:100990001B6813F4003FF2D010E0FFF769FD054635
:1009A00007E0FFF765FD401B41F28833984200F2F3
:1009B000C9817F4B1B6813F4003FF2D1236813F009
:1009C000020F6CD0E368012B04D978484FF4B07162
:1009D00000F014FC23691F2B04D9744840F2611104
:1009E00000F00CFC724B9B6813F00C0F0AD0704B9C
:1009F0009B6803F00C03082B1CD16D4B5B6813F450
:100A0000800F17D16A4B1B6813F0020F03D0E36805
:100A1000012B40F09981664B196821F0F801226999
:100A2000F82090FAA0F0B0FA80F0C0B282400A43F9
:100A30001A6034E0E36803B301225F4B1A60FFF7EA
:100A400017FD054605E0FFF713FD401B642800F283
:100A50007D81574B1B6813F0020FF4D0544B19687B
:100A600021F0F8012269F82090FAA0F0B0FA80F0A5
:100A7000C0B282400A431A6011E000224E4B1A6055
:100A8000FFF7F6FC054605E0FFF7F2FC401B642883
:100A900000F25E81464B1B6813F0020FF4D123680D
:100AA00013F0080F2ED06369012B04D93F484FF48F
:100AB000D07100F0A3FB636993B101223F4B1A6030
:100AC000FFF7D6FC054605E0FFF7D2FC401B642883
:100AD00000F24081364B5B6F13F0020FF4D011E04F
:100AE0000022364B1A60FFF7C3FC054605E0FFF70E
:100AF000BFFC401B642800F22F812D4B5B6F13F06D
:100B0000020FF4D1236813F0040F6ED0A368012BF9
:100B100006D9052B04D025484FF4E57100F06EFB93
:100B2000234B1A6C42F080521A64A3F5E4331A681E
:100B300042F480721A60FFF79BFC054605E0FFF760
:100B400097FC401B642800F209811D4B1B6813F4BD
:100B5000807FF4D000221B4B1A70FFF789FC0546FA
:100B600007E0FFF785FC401B41F28833984200F212
:100B7000F7800F4B1B6F13F0020FF2D1227A114B4B
:100B80001A70A368012B1FD1FFF772FC054607E01E
:100B9000FFF76EFC401B41F28833984200F2E2807E
:100BA000034B1B6F13F0020FF2D01EE0C4290008A4
:100BB000003802400238024000004742800E47429F
:100BC0000070004070380240FFF752FC054607E015
:100BD000FFF74EFC401B41F28833984200F2C4807C
:100BE000674B1B6F13F0020FF2D1A369022B04D9DC
:100BF000644840F20E2100F001FBA369002B00F0D5
:100C0000B5805F4A926802F00C02082A00F0B080BA
:100C1000022B7ED1E3693BB1B3F5800F04D0594874
:100C200040F2172100F0EAFA236A3F2B04D9554815
:100C30004FF4067100F0E2FA636AC03BF02B04D96E
:100C4000504840F2192100F0D9FAA36A022B0AD0C9
:100C5000042B08D0062B06D0082B04D0494840F2BC
:100C60001A2100F0CBFAE36A043B0B2B04D9454868
:100C700040F21B2100F0C2FA0022434B1A60FFF73A
:100C8000F7FB054604E0FFF7F3FB401B642871D82F
:100C90003B4B1B6813F0007FF5D1236A626A47F66D
:100CA000C07191FAA1F1B1FA81F1C9B28A4043EA67
:100CB0000201A36A5B085A1E4FF4403393FAA3F370
:100CC000B3FA83F3DBB29A400A43E3691343E16A60
:100CD0004FF0706292FAA2F2B2FA82F2D2B201FA44
:100CE00002F21A4342F00052254B5A600122264B71
:100CF0001A60FFF7BDFB044604E0FFF7B9FB001BD9
:100D0000642839D81E4B1B6813F0007FF5D00020F3
:100D100038BD00221C4B1A60FFF7AAFB044604E012
:100D2000FFF7A6FB001B642828D8154B1B6813F09F
:100D3000007FF5D1002038BD012038BD032038BD2B
:100D4000032038BD032038BD012038BD032038BD45
:100D5000032038BD032038BD032038BD032038BD33
:100D6000032038BD032038BD032038BD002038BD26
:100D7000012038BD032038BD032038BD032038BD15
:100D800000380240C42900086000474270B504469C
:100D90000D460368013B0E2B04D9884840F27E21A2
:100DA00000F02CFA072D04D9844840F27F2100F08E
:100DB00025FA834B1B6803F00F03AB4280F08B8056
:100DC000EAB27F4B1A701B6803F00F03AB4240F08E
:100DD0005181236813F0020F1DD0A368A3B1802BAB
:100DE00012D0902B10D0A02B0ED0B02B0CD0C02B3B
:100DF0000AD0D02B08D0E02B06D0F02B04D06F48BF
:100E000040F2952100F0FAF96E4B996821F0F0015B
:100E1000A2680A439A60236813F0010F00F0E8808B
:100E20006368022B04D965484FF4277100F0E6F996
:100E30006368012B05D1634A126812F4003F0ED19A
:100E40001AE1022B05D15F4A126812F0007F06D129
:100E500014E15C4A126812F0020F00F01181594A45
:100E6000916821F003010B439360FFF701FB0546F6
:100E70006368012B0FD107E0FFF7FAFA401B41F23C
:100E80008833984200F2FE804E4B9B6803F00C03BF
:100E9000042BF1D1ACE0022B17D107E0FFF7E8FA01
:100EA000401B41F28833984200F2EE80454B9B682C
:100EB00003F00C03082BF1D19AE0FFF7D9FA401B9D
:100EC00041F28833984200F2E1803E4B9B6813F078
:100ED0000C0FF2D18CE0236813F0020F1DD0A36831
:100EE000A3B1802B12D0902B10D0A02B0ED0B02B02
:100EF0000CD0C02B0AD0D02B08D0E02B06D0F02B82
:100F000004D02E484FF4397100F078F92D4B9968D0
:100F100021F0F001A2680A439A60236813F0010FE0
:100F20005ED06368022B04D9244840F2EB2100F024
:100F300065F96368012B05D1224A126812F4003F5B
:100F40000ED1A5E0022B05D11E4A126812F0007FD7
:100F500006D19FE01B4A126812F0020F00F09C803D
:100F6000184A916821F003010B439360FFF780FA60
:100F700006466368012B0FD107E0FFF779FA801B63
:100F800041F28833984200F289800E4B9B6803F04F
:100F90000C03042BF1D123E0022B1CD106E0FFF758
:100FA00067FA801B41F28833984279D8054B9B68D9
:100FB00003F00C03082BF2D112E000BFC429000893
:100FC000003C024000380240FFF752FA801B41F219
:100FD0008833984266D8354B9B6813F00C0FF3D1D9
:100FE000EAB2334B1A701B6803F00F03AB425BD1BC
:100FF000236813F0040F19D0E36883B1B3F5805F61
:101000000DD0B3F5A05F0AD0B3F5C05F07D0B3F53C
:10101000E05F04D0274840F23B3100F0EFF8234B6B
:10102000996821F4E051E2680A439A60236813F05A
:10103000080F1AD0236983B1B3F5805F0DD0B3F5E3
:10104000A05F0AD0B3F5C05F07D0B3F5E05F04D06E
:10105000184840F2423100F0D1F8144B9A6822F45B
:101060006042216942EAC1029A600F20FFF7D2F97B
:10107000002070BD012070BD012070BD012070BD39
:10108000012070BD032070BD032070BD032070BD22
:10109000012070BD012070BD012070BD032070BD16
:1010A000032070BD032070BD012070BD00380240D8
:1010B000003C0240C4290008244B9B6803F00C0349
:1010C000042B40D0082B01D0214870471F4B586893
:1010D00000F03F005B6813F4800F11D01D4BB3FB91
:1010E000F0F01A4B5A6847F6C0731A4093FAA3F30C
:1010F000B3FA83F3DBB222FA03F303FB00F010E050
:10110000134BB3FBF0F0114B5A6847F6C0731A400B
:1011100093FAA3F3B3FA83F3DBB222FA03F303FBEC
:1011200000F00A4B5A6802F440324FF4403393FA0D
:10113000A3F3B3FA83F3DBB222FA03F301335B00C8
:10114000B0FBF3F070470348704700BF003802401F
:101150000024F40000127A0008B5FFF7ADFF094B38
:101160009A6802F0F002F02393FAA3F3B3FA83F340
:10117000DBB222FA03F3044AD35CD840034B186075
:1011800008BD00BF00380240B42900080C00002050
:10119000FEE700BF08B5034800F056F80120FFF74E
:1011A000F7FF00BFF429000808B50D4B1B6813B901
:1011B0000C4A0B4B1A600A4B1B68033020F00300EB
:1011C0001844094A904206D900F094FF0C230360AA
:1011D0004FF0FF3008BD024A1060184608BD00BF3E
:1011E000A8020020A434002000FC01200123036099
:1011F000014B0B60704700BF0400002008B5034698
:101200000A460348194600F005F8FFF7C3FF00BF80
:10121000482A00080FB400B583B004AB53F8042B80
:1012200001930848802100F0A7FF011E03DD054857
:1012300000F052F80146084603B05DF804EB04B034
:10124000704700BFB002002010B5044600F062FFF6
:101250000146204600F040F80248012100F03CF829
:1012600010BD00BF3C2B0008F0B585B005460C460C
:10127000174B1B6883B9174B019304230293032375
:10128000039301AF012630463946ABBE0646B6F1A0
:10129000FF3F13D00E4B1E600D4B1B680193029550
:1012A000039401AE052528463146ABBE0546B5F18F
:1012B000FF3F06D0AC4207D0601B07E04FF0FF3085
:1012C00004E04FF0FF3001E04FF0FF3005B0F0BD1B
:1012D00030030020A02A000808B5FFF7C5FF08BDAD
:1012E00008B500F0B5F808BDF8B504460D46174638
:1012F0001E462648FFF78EFF25482168FFF78AFF24
:1013000024486168FFF786FF2348A168FFF782FF42
:101310002248E168FFF77EFF21482169FFF77AFF45
:1013200020486169FFF776FF1F48A169FFF772FF48
:101330001E48E169FFF76EFF1D48FFF76BFF1D4870
:101340002946FFF767FF1C4CE16A1C48FFF762FF64
:10135000216B1B48FFF75EFFE16B1A48FFF75AFF4E
:1013600015F0800F03D018483946FFF753FF15F4E6
:10137000004F03D015483146FFF74CFF1448FFF7E4
:1013800049FF14480699FFF745FFF8BDA42A000855
:10139000B42A0008C42A0008D42A0008E42A000855
:1013A000F42A0008042B0008142B0008242B000842
:1013B000342B0008402B000800ED00E0502B000803
:1013C000602B0008702B0008802B0008902B000871
:1013D000A02B0008A82B000870B5044685692B884F
:1013E0008B422ED103684668013B042B2BD8DFE8E3
:1013F00003F0032A24241B003068144900F080FE07
:1014000070B9736813B90123236016E0042B02D16D
:101410000223236011E0082B02D1032323600CE098
:101420004FF0FF33236008E03368023B012B02D802
:101430000023036001E0B36803600235A561012069
:1014400070BD002070BD002070BD00BFA02A000844
:101450000C4B1A6842F001021A60002199601A6868
:1014600022F0847222F480321A60074A5A601A68A5
:1014700022F480221A60D9604FF00062034B9A6018
:10148000704700BF003802401030002400ED00E03B
:1014900030B587B00C4B1A6B42F008021A634FF458
:1014A0008054019401230293022204920393074D76
:1014B000284601A9FFF760F8284621460022FFF7D9
:1014C000E7F907B030BD00BF00380240000C024011
:1014D00030B587B01A4B1A6B42F002021A631A6BCE
:1014E00042F004021A63022304930123029303933C
:1014F00006AC4FF4005344F8143D124D28462146E3
:10150000FFF73AF84FF40043019328462146FFF7CE
:1015100033F84FF48043019328462146FFF72CF817
:101520000823019328462146FFF726F84FF48063ED
:10153000019305482146FFF71FF807B030BD00BFF3
:1015400000380240000802400004024008B530B1F3
:1015500006484FF400510122FFF79AF908BD0348ED
:101560004FF400510022FFF793F908BD0008024034
:1015700008B530B106484FF400410122FFF788F961
:1015800008BD03484FF400410022FFF781F908BD70
:101590000008024008B530B106484FF480410122EE
:1015A000FFF776F908BD03484FF480410022FFF7AA
:1015B0006FF908BD0008024008B528B105480821A8
:1015C0000122FFF765F908BD024808210022FFF754
:1015D0005FF908BD0008024008B530B106484FF475
:1015E00080610122FFF754F908BD03484FF4806180
:1015F0000022FFF74DF908BD0004024038B505464A
:101600000C460020FFF7A2FF24B90020FFF7C2FF1D
:10161000002411E00120FFF7BDFFF9E705F080008D
:10162000FFF7CAFF6D00EDB20020FFF7D5FF0120E4
:10163000FFF7D2FF0134E4B2072CEFD90120FFF706
:1016400085FF38BD38B52038C5B200240AE005EB67
:1016500045035B002344054AD05C0121FFF7CEFF20
:101660000134E4B2052CF2D938BD00BF10000020CF
:1016700010B5044602E0FFF7E5FF013420780028AA
:10168000F9D110BD38B500250BE000200121FFF78E
:10169000B5FF0134E4B200E00024532CF5D9013544
:1016A000EDB2052DF8D938BD10B500EB4000430070
:1016B000DCB241F040000021FFF7A0FF44F08000C1
:1016C0000021FFF79BFF10BD08B5FFF701FF0120C8
:1016D000FFF760FF0120FFF76FFF0120FFF77CFF9E
:1016E0000120FFF733FF0020FFF742FF0120FFF743
:1016F0003FFF21200021FFF781FFC6200021FFF7D7
:101700007DFF06200021FFF779FF13200021FFF75E
:1017100075FF20200021FFF771FFFFF7B3FF0C20BA
:101720000021FFF76BFF08BD0A4B1A680A4BA3FBA9
:1017300002139B09013BB3F1807F09D2074A536032
:10174000F021074B83F823100023936007231360D5
:10175000704700BF0C000020D34D621010E000E085
:1017600000ED00E0014B1860704700BF9C34002082
:1017700008B50A4B1B681BB1084B1A68013A1A607E
:10178000074B1B681BB1064B1A68013A1A60044BE1
:101790001B68012B01D100F0BDFA08BD9834002070
:1017A0009C34002008B5FFF7E3FF08BD10B592B0E8
:1017B000174B1A6C42F080521A64A3F5E4331A688E
:1017C00042F440421A6001230193029302240794D9
:1017D0004FF480030893082309934FF4A8730A93E6
:1017E0000B9407230C9301A8FFF77AF80F230D93AE
:1017F0000E9400230F934FF4A05310934FF4805393
:1018000011930DA80521FFF7C1FA12B010BD00BF5A
:101810000038024008B5FFF71BFEFEF70FFEFEF78B
:101820002DFEFFF7C3FF08BD2DE9F007002306E0FA
:1018300026490122CA54194481F86C2F1344522BB3
:10184000F6DD00243DE0E0002049542202FB003593
:1018500011F8059000FB02251D4411F905A0851C17
:1018600002FB053511F90580C51C02FB053511F990
:1018700005C0051D02FB05354F57451D02FB05350B
:101880004E57851D02FB05354D57073002FB0030D2
:10189000095602FB043249EA4A0040EA880040EA5D
:1018A000CC0040EA071040EA461040EA851040EAC2
:1018B000C11007498854013300E00023532BC2DDD7
:1018C0000134052CF9DDBDE8F00770474403002022
:1018D000C822002038B50546FFF7A6FF00200146C4
:1018E000FFF7E2FE002403E02857FFF787FE0134EC
:1018F000B4F5FC7FF8DB38BD10B500243D4B1C70FF
:101900003D4B1C703D4B1C703D4B1C60FFF7DCFEDB
:1019100020462146FFF7C8FE3A48FFF7A9FE2046B9
:101920000121FFF7C1FE3848FFF7A2FE2046022141
:10193000FFF7BAFE3548FFF79BFE20460321FFF76D
:10194000B3FE3348FFF794FE2B4B1B78002BFBD0E4
:1019500000240FE0542202FB043200212D48815460
:101960002D4881542D488154013300E00023532B2E
:10197000F0DD01342F2CF9DD00200146FFF794FE45
:1019800000240BE0542202FB043201202249885437
:10199000034400E00023532BF4DD01342F2CF9DD48
:1019A0001F48FFF797FF1F4C00E01C46631E002CEA
:1019B000FBD100200146FFF777FE0BE0542202FB2B
:1019C0000432002014498854013300E00023532BD3
:1019D000F4DD01342F2CF9DD1148FFF77BFF114BAB
:1019E00000E013465A1E002BFBD14FF47A70FFF72C
:1019F000B9FE10BD3C0300203603002088340020CF
:101A000040030020EC2B0008F82B0008042C0008F1
:101A1000142C00080813002044030020C8240020D0
:101A2000C822002080C3C90110B42B4B93F90020B9
:101A30002A4B134003D5013B63F001030133DBB2B2
:101A4000254A13700021264A11705BB27BB130E049
:101A500004F11602542101FB02320120214988546D
:101A6000034400E000230F2BF2DD013400E00024EA
:101A7000012CF7DD10221C4B1A6018221B4B1A6038
:101A800014441B4B1C6001221A4B1A7000221A4B83
:101A90001A701DE004F11602542101FB02320120EC
:101AA00010498854034400E00023072BF2DD013481
:101AB00000E00024072CF7DD08220B4B1A601222ED
:101AC0000A4B1A6014440A4B1C600022094B1A701E
:101AD0005DF8044B704700BF3C030020010000800C
:101AE0000413002008130020C0240020C424002078
:101AF000380300203503002034030020F0B4244BC9
:101B00001868532815D001230FE0421E542101FB11
:101B1000032220498A56012A06D1542202FB0302DD
:101B20001D498A56012A06D001332F2BEDDD0023F3
:101B300002E0012300E001231BB3082823DD174B3B
:101B400093F90030012B20DDB0F1100700D50027FC
:101B5000002610E00F49542303FB0623CC5C0E48FB
:101B6000C55C2C43C4540020C854013200E03A46FE
:101B7000532AEFDD01362F2EF9DD0020084B1870B7
:101B800004E0002002E0012000E00120F0BC7047EA
:101B9000C024002008130020C824002004130020C3
:101BA0008834002030B585B000242B4B1C702046B3
:101BB0002146FFF779FD0BE0542202FB043200209E
:101BC00026498854013300E00023532BF4DD01340F
:101BD0002F2CF9DD2248FFF77DFE00200121FFF7C1
:101BE00063FD2048FFF744FD00200221FFF75CFD64
:101BF0001D48FFF73DFD00200321FFF755FD1B4B5E
:101C00001B681B4880FB0310DA17C2EB601000F161
:101C100030010091642101FB1031164880FB015412
:101C2000C917C1EBA4013031019180FB0310C2EB55
:101C3000A00202EB820252009A1A30320292002372
:101C400003936846FFF714FD034B1B78002BFBD072
:101C5000FFF752FE05B030BD3603002044030020DC
:101C6000C8220020242C0008302C0008400300204B
:101C70001F85EB516766666638B5002306E054227F
:101C800002FB0302002411498C5401332F2BF6DD93
:101C900011E0441E0D4A542101FB03F10C44155D73
:101CA00001445554145D0A4A5454013300E00023A2
:101CB0002F2BEEDD01380028F9DC064B1A680132C3
:101CC0001A600548FFF706FE38BD00BF4403002038
:101CD000C824002040030020C822002010B50020A6
:101CE00013E0542202FB030209498A56012A00D15B
:101CF0000134013301E0002423462F2BF1DD302C89
:101D000002D1FFF7B9FFEAE701305328F3DD10BD38
:101D10004403002070B5254B1A7801321A70244B09
:101D20001B783BB9FFF7DAFFFFF77EFE0122204B5D
:101D30001A7033E0FFF7E2FE10B1FFF733FF2DE03A
:101D40001C4B1E68721C1A60103E00D500262F2501
:101D50000EE05A1E1849542000FB05F084180C5D53
:101D60000344CC54134600E05323B342F1DA013D5F
:101D7000002DF9DC00240FE0542202FB04320E494E
:101D8000885C0E49895C08430D498854013300E0A2
:101D90000023532BF0DD01342F2CF9DD0948FFF728
:101DA00099FDFA20FFF7DEFC70BD00BF0413002090
:101DB00088340020C024002008130020C8240020FC
:101DC00044030020C822002000B587B00A4B1A6BDC
:101DD00042F001021A6302230193084A029204931B
:101DE00001230393064801A9FEF7C6FB8022054B99
:101DF0001A6007B05DF804FB0038024000001110C3
:101E00000000024000E100E000B587B00B4B1A6B08
:101E100042F001021A6304230193094B0293022347
:101E2000049301230393074801A9FEF7A5FB4FF490
:101E30008072054B1A6007B05DF804FB0038024061
:101E4000000011100000024000E100E000B587B082
:101E50000B4B1A6B42F001021A6308230193094BE2
:101E600002930223049301230393074801A9FEF779
:101E700083FB4FF40072054B1A6007B05DF804FB5A
:101E800000380240000011100000024000E100E0B4
:101E900000B587B00B4B1A6B42F001021A63102396
:101EA0000193094B029302230493012303930748F0
:101EB00001A9FEF761FB4FF48062054B1A6007B081
:101EC0005DF804FB003802400000111000000240E1
:101ED00000E100E038B50220FEF7F6FC154B1B6868
:101EE000012B26DD013B134A1360134B1D68013D96
:101EF0001D602E200EE0441E104A542101FB0434C4
:101F0000145D01FB00315454013B00E05323002BCE
:101F1000F1DA01380128F9DC2E2D0AD106E0074A52
:101F20001A44002182F85410013B00E05323002B97
:101F3000F5DA38BDC424002038030020081300203F
:101F400038B50420FEF7C0FC154B1B682E2B26DC91
:101F5000144A1568013515600133114A13600120D8
:101F60000EE01149542200FB02241C440C5D02FBCC
:101F700000328C54013B00E05323002BF1DA013096
:101F80002E28F9DD022D0AD106E0074A1A44002165
:101F900082F86C1F013B00E05323002BF5DA38BDBB
:101FA00038030020C424002008130020F8B50820BE
:101FB000FEF78AFC394B93F90030012B6CD1384B7A
:101FC0001B78002B33D10122354B1A70354B1F681B
:101FD000C7F12E040FE0344B1D68A5F1100306E095
:101FE000542202FB04320020304988540133AA1ED7
:101FF0009A42F5DC0134C7F13006A642EBDCC7F1AA
:1020000020020DE0284B19688B1E06E0542000FBCF
:1020100002300125254C25542B448B42F6DB01323E
:10202000B242EFDB224B1A680E321A60F8BD5BB287
:10203000012B31D100221A4B1A701A4B1C68C4F1C3
:1020400020020DE0184B19688B1E06E0542000FB9F
:1020500002300026154D2E5401338B42F6DB01323F
:10206000C4F130069642EDDCC4F12E040EE00E4BB6
:102070001D68A5F1100306E0542202FB0432012082
:102080000A4988540344AB42F6DB0134B442EEDB28
:10209000074B1A680E3A1A60F8BD00BF35030020DE
:1020A00034030020C4240020C02400200813002092
:1020B0003803002008B51020FEF706FC0122014B72
:1020C0001A7008BD3603002008B5FFF77DFEFFF744
:1020D0009BFEFFF7BBFEFFF7DBFEFFF725FBFFF7DD
:1020E000D7F9FFF709FC024B1A7801321A70FAE7A8
:1020F0003C030020014B1868704700BF9802002085
:1021000010F8012B11F8013B012A28BF9A42F7D0A1
:10211000D01A7047034613F8012B002AFBD1181A76
:102120000138704730B5141E9BB0054604DA8B2386
:1021300003604FF0FF301CE04FF4027200910491F5
:10214000ADF80C2014BF04F1FF3121464FF6FF72A9
:1021500002910591ADF80E2069461A461E9B00F0CB
:1021600077F8431CBCBF8B232B6014B1009B00226B
:102170001A701BB030BD000073B50093054B0646C6
:102180000D461446186831462A462346FFF7CAFF13
:1021900002B070BD980200202DE9F0478D68AB4277
:1021A00081460C4692461F4643D38B8913F4906FA9
:1021B0003DD026680969C1EB06086669022206EB74
:1021C000460696FBF2F608F101023A44964238BF01
:1021D00016465B050FD5314600F026FB054698B143
:1021E0002169424600F0B7FAA38923F4906343F0D3
:1021F0008003A38113E0324600F06AFB054670B904
:102200004846216900F0CCFA0C23C9F80030A389B4
:1022100043F04003A3814FF0FF30BDE8F087256114
:1022200066614544C8EB06062560A6603D46AF42A0
:1022300000D23D462A462068514600F095FAA36830
:102240005B1BA36023681D4425600020BDE8F08768
:102250002DE9F0439DB0074603938B891C060D467C
:1022600016460CD50B6953B9402100F0DDFA286001
:10227000286110B90C233B60C8E040236B61002348
:10228000099320238DF8293030238DF82A303346E6
:102290001C4613F8012B1AB9B4EB06090FD002E063
:1022A000252AF5D1F8E73846294632464B46FFF74E
:1022B00073FF013000F0A580099B4B4409932378FC
:1022C000002B00F09E8000234FF0FF320493079311
:1022D000059206938DF853301A9304F101094C4688
:1022E0004D4E21783046052200F026FA09F1010909
:1022F000049B28B1861B0120B04003430493EEE702
:10230000D90644BF20228DF853201A0744BF2B2240
:102310008DF8532022782A2A02D0079B21460EE00E
:10232000039A111D12680391002A01DB079204E051
:10233000524243F002030792049301340AE00C4630
:1023400001312278303A092A03D80A2000FB0323FE
:10235000F5E7079323782E2B1AD163782A2B0AD11D
:10236000039B1A1D1B680392002B04F10204B8BFE3
:102370004FF0FF330BE0611C00230C460131227843
:10238000303A092A03D80A2000FB0323F5E7059316
:10239000224E21783046032200F0CEF930B1861B60
:1023A000049B4020B04003430493013421781C482F
:1023B0008DF828100622661C00F0BEF988B1194B72
:1023C00033B9039B073323F007030833039314E067
:1023D00003AB0093384604A92A46134BAFF30080A1
:1023E00007E003AB0093384604A92A460E4B00F0E1
:1023F0008FF8B0F1FF3F804603D0099B4344099317
:1024000045E7AB895B0601D4099801E04FF0FF3046
:102410001DB0BDE8F08300BF3A2C0008402C000836
:10242000442C000800000000992100082DE9F84321
:1024300015461F468A680B69DDF820809A42A8BFBE
:1024400013462B6091F8432006460C460AB101332F
:102450002B602368990602D52B6802332B60236812
:1024600013F006091DD094F843302268003318BFDA
:10247000012392061FD5E1185A1C302081F8430031
:10248000224494F8451082F84310023313E030469A
:10249000394604F119020123C047013007D009F180
:1024A0000109E2682B68D31A9945F0DBDBE74FF0AE
:1024B000FF30BDE8F8833046394604F14302C04797
:1024C0000130F4D023682A68E16803F00603042B86
:1024D00008BFC2EB01052369A2680CBF25EAE575B8
:1024E00000259A42C4BFC3EB0203ED184FF0000968
:1024F000A9450ADA3046394604F11A020123C047D9
:102500000130D4D009F10109F2E70020BDE8F883D9
:102510002DE9FF470E7E0C9D6E2E80460C4691469F
:102520009A4601F1430000F0A58011D8632E22D015
:1025300009D8002E00F0AF80582E40F0BF8081F8FF
:1025400045607B4A4FE0642E1ED0692E1CD0B5E05A
:10255000732E00F0A48009D86F2E2BD0702E40F07F
:10256000AD800B6843F020030B6038E0752E21D05E
:10257000782E34D0A2E02B681A1D1B682A6001F166
:10258000420781F842309DE022682B6812F0800FEC
:1025900003D01A1D2A601D6805E05106F9D51A1DE1
:1025A0002A60B3F90050002D39DA2D236D4284F8EA
:1025B000433034E022682B6812F0800F03D01A1DDC
:1025C0002A601D6804E05206F9D51A1D2A601D888C
:1025D000237E574A6F2B14BF0A2308231BE078235E
:1025E000544A84F845302368296813F0800F01F1BC
:1025F00004062E6001D00D6802E05F06FBD50D8851
:10260000DE0744BF43F0200323601DB9236823F095
:10261000200323601023002184F8431001E0444A82
:102620000A236668A660002E03DB216821F00401FE
:10263000216005B96EB104F14201B5FBF3F603FB6D
:1026400016550F46555D01F801593546002EF4D157
:1026500000E00746082B0AD12368DD0707D562682A
:1026600023699A4203DC302307F8013C013FC01B79
:1026700020612CE009682B68626911F0800F04D09A
:10268000191D29601B681A6005E04906F8D5191D57
:1026900029601B681A8000232361074617E02B6816
:1026A0001A1D2A601F683846FFF734FD63682061F1
:1026B000984288BF23612369636005E004F1420703
:1026C00084F8426001232361002384F84330CDF86D
:1026D00000A04046214603AA4B46FFF7A7FE013063
:1026E00002D14FF0FF301FE0404649463A46236989
:1026F000D0470130F5D023689B0705D4E068039BE1
:102700009842B8BF18460FE00025E268039BD31A31
:102710009D42F3DA4046494604F119020123D047AD
:102720000130DED00135F0E704B0BDE8F08700BF2E
:102730004B2C00085C2C000810B5C9B20244904232
:10274000034606D01C788C4200F10100F7D11846F0
:1027500010BD002010BD10B50023934203D0CC5C07
:10276000C4540133F9E710BD814270B501D3002391
:102770000EE08C18A042FAD28518134613F1FF33ED
:1027800005D3514266182944F65CCE54F6E770BD75
:10279000934203D0CC5CC4540133F9E770BD000010
:1027A00030B500293CD051F8042C0B1F1D49002ADC
:1027B000B8BF9B180A680C4612B95A600B6030BD4E
:1027C00093420DD219685818904203D15A581144B7
:1027D000426819605A60236030BD994203D80A46A6
:1027E00051680029F9D1146815199D420AD11B6856
:1027F0002344D0188842136012D108680344136040
:102800004B680CE002D90C23036030BD18681C181B
:102810008C4203D10C6849682044186059605360A9
:1028200030BD00BF9034002070B5CD1C25F00305ED
:1028300008350C2D38BF0C25002D06463FDB8D4298
:102840003DD3214B1C6818462146A1B10B685B1B88
:102850000ED40B2B03D90B60CC18CD501FE08C424B
:1028600002D1626802601AE04B6863600C4616E0B1
:102870000C464968E9E7154C23681BB9304600F05F
:102880004DF820602946304600F048F8431C0146C8
:1028900015D0C41C24F0030484420AD1256004F13D
:1028A0000B00231D20F00700C31A0BD05A42E25040
:1028B00070BD3046611A00F031F80130EED10C23C2
:1028C0003360002070BD00BF903400208C340020A5
:1028D000F8B5064614460D4621B91146BDE8F84044
:1028E000FFF7A2BF1AB9FFF75BFF2046F8BD00F063
:1028F00025F8A0420ED230462146FFF795FF074645
:1029000050B129462246FFF726FF30462946FFF7F9
:1029100047FF01E02846F8BD3846F8BD38B5064CFB
:102920000023054608462360FEF73EFC431C02D107
:10293000236803B12B6038BD9434002051F8040C97
:10294000002802DA04390B58184404387047000094
:102950002E2E2F73797374656D2F7372632F7374BA
:102960006D333266342D68616C2F73746D3332664B
:102970003478785F68616C5F636F727465782E631A
:10298000000000002E2E2F73797374656D2F737203
:10299000632F73746D333266342D68616C2F7374DA
:1029A0006D3332663478785F68616C5F6770696F29
:1029B0002E63000000000000010203040102030472
:1029C000060708092E2E2F73797374656D2F7372A5
:1029D000632F73746D333266342D68616C2F73749A
:1029E0006D3332663478785F68616C5F7263632E32
:1029F0006300000061626F727428292C2065786979
:102A000074696E672E2E2E002C2066756E637469B5
:102A10006F6E3A2000000000617373657274696F15
:102A20006E2022257322206661696C65643A2066F7
:102A3000696C6520222573222C206C696E65202527
:102A400064257325730A00006173736572745F7087
:102A50006172616D2829206661696C65643A20663F
:102A6000696C6520222573222C206C696E652025F7
:102A7000640A00006D61696E28617267633D2564B8
:102A80002C20617267763D5B000000002C20000066
:102A900022257322000000005D293B0A000000008F
:102AA0003A747400537461636B206672616D653AA9
:102AB0000A000000205230203D2020253038580ADE
:102AC00000000000205231203D2020253038580AD7
:102AD00000000000205232203D2020253038580AC6
:102AE00000000000205233203D2020253038580AB5
:102AF0000000000020523132203D20253038580A95
:102B000000000000204C52203D2020253038580A7B
:102B100000000000205043203D2020253038580A76
:102B20000000000020505352203D20253038580A24
:102B3000000000004653522F4641523A0A0000005E
:102B40002043465352203D2020253038580A0000AB
:102B50002048465352203D2020253038580A000096
:102B60002044465352203D2020253038580A00008A
:102B70002041465352203D2020253038580A00007D
:102B8000204D4D464152203D20253038580A000046
:102B90002042464152203D2020253038580A00006E
:102BA0004D6973630A000000204C522F4558435F63
:102BB00052455455524E3D20253038580A000000E9
:102BC0005B486172644661756C745D0A00000000C8
:102BD0005B4275734661756C745D0A005B55736189
:102BE00067654661756C745D0A0000005445545277
:102BF000495321210000000057796B6F6E616E69A7
:102C0000653A20004A2E204B6177637A796E736BA8
:102C1000610000004A2E204368726F6D696E736B0D
:102C2000610000004B4F4E49454320475259000078
:102C300057796E696B3A20004300232D302B20001A
:102C4000686C4C0065666745464700303132333466
:102C50003536373839414243444546003031323306
:0D2C600034353637383961626364656600CB
:102C700078563412AC020020000000000024F4005A
:102C80000000000000000000002F0000000007000E
:102C9000070000147F147F1400242A7F2A12006288
:102CA0006408132300364955225000000503000034
:102CB00000001C224100000041221C000014083EBC
:102CC00008140008083E0808000000A06000000882
:102CD00008080808000060600000002010080402D6
:102CE000003E5149453E0000427F40000042615194
:102CF0004946002141454B31001814127F1000272E
:102D000045454539003C4A494930000171090503F0
:102D100000364949493600064949291E0000363621
:102D20000000000056360000000814224100001484
:102D30001414141400004122140800020151090661
:102D400000324959513E007C1211127C007F4949E2
:102D50004936003E41414122007F4141221C007F13
:102D600049494941007F09090901003E4149497A21
:102D7000007F0808087F0000417F4100002040419B
:102D80003F01007F08142241007F40404040007F07
:102D9000020C027F007F0408107F003E4141413E4B
:102DA000007F09090906003E4151215E007F091993
:102DB00029460046494949310001017F0101003F90
:102DC0004040403F001F2040201F003F4038403F10
:102DD0000063140814630007087008070061514974
:102DE000454300007F41410000552A552A55000007
:102DF00041417F0000040201020400404040404085
:102E0000000001020400002054545478007F48441C
:102E1000443800384444442000384444487F003853
:102E20005454541800087E0901020018A4A4A47C7C
:102E3000007F080404780000447D40000040808446
:102E40007D00007F102844000000417F4000007C8E
:102E500004180478007C080404780038444444389A
:102E600000FC242424180018242418FC007C0804E6
:102E7000040800485454542000043F444020003CBF
:102E80004040207C001C2040201C003C4030403C46
:102E9000004428102844001CA0A0A07C00446454D6
:102EA0004C44000006090906000000000000000074
:102EB0000000000000000000000000000000000012
:102EC0000000000000000000382C00080000000096
:102ED00000000000000000000000000000000000F2
:102EE00000000000000000000000000000000000E2
:102EF00000000000000000000000000000000000D2
:102F000000000000000000003802002032547698D3
:040000050800018965
:00000001FF
